:020000040800F2
:100000007806002089010008AD070008A507000850
:10001000A9070008430200089D0F00080000000027
:10002000000000000000000000000000A90B000814
:10003000DD03000800000000650B0008950C0008B7
:10004000A3010008A3010008A3010008A301000800
:10005000A3010008A3010008A3010008A3010008F0
:10006000A3010008A3010008A3010008A3010008E0
:10007000A3010008A3010008A3010008A3010008D0
:10008000A3010008A3010008A3010008A3010008C0
:10009000A3010008A3010008A3010008A3010008B0
:1000A000A3010008A3010008A3010008A3010008A0
:1000B000750D0008A3010008A3010008A3010008B2
:1000C000A3010008A3010008A3010008A301000880
:1000D000A3010008A3010008A3010008A301000870
:1000E000A3010008A3010008A301000800F002F822
:1000F00000F03AF80AA090E8000C82448344AAF188
:100100000107DA4501D100F02FF8AFF2090EBAE885
:100110000F0013F0010F18BFFB1A43F0010318473B
:100120004020000060200000103A24BF78C878C149
:10013000FAD8520724BF30C830C144BF04680C60ED
:10014000704700000023002400250026103A28BF35
:1001500078C1FBD8520728BF30C148BF0B60704739
:100160001FB51FBD10B510BD00F031F81146FFF7E7
:10017000F7FF00F015FF00F04FF803B4FFF7F2FFB0
:1001800003BC00F057F800000948804709480047C1
:10019000FEE7FEE7FEE7FEE7FEE7FEE7FEE7FEE737
:1001A000FEE7FEE704480549054A064B7047000094
:1001B000990C0008ED000008780000207806002067
:1001C000780200207802002070477047704775461B
:1001D00000F02CF8AE4605006946534620F00700B3
:1001E000854618B020B5FFF7DDFFBDE820404FF091
:1001F00000064FF000074FF000084FF0000B21F011
:100200000701AC46ACE8C009ACE8C009ACE8C009DD
:10021000ACE8C0098D46704710B50446AFF30080C6
:100220002046BDE81040FFF7A8BF00000048704717
:100230001800002001491820ABBEFEE7260002008E
:10024000704700BFFEE7000070B500F095F800F0C1
:10025000B3F84FF0807038490860192000F0BFF8FB
:100260004FF4807034490860322000F0C4F800F088
:1002700091F8314808380068C0F30020002858D1B0
:1002800000BF2D4808380068C0F300200028F8D0CF
:1002900000BF294808380068C0F300200028F8D1C2
:1002A00000F008FF2549087000F004FF2449087099
:1002B00000F000FF2349087000F0FCFE224908709E
:1002C00000F0F8FE2149087000F076F84FF48070D5
:1002D00019490860194800781949097808441949EA
:1002E0000978084418490978084418490978884267
:1002F0001DD112490978124A1278881801F0E6FADD
:10030000134948601048007801F0F8FA0646114990
:1003100001F0FAF904460B48007801F0EFFA0546BF
:10032000214601F083F90A490860012070BD0020D0
:10033000FCE70020FAE70000100C0140100000204C
:1003400011000020120000201300002014000020E3
:10035000080000200000204110B5FFF775FF01489C
:10036000406810BD0800002010B5FFF76DFF014880
:10037000006810BD0800002010B50121082000F021
:1003800003FC00F019F84FF480700149086010BDBB
:10039000100C014008B54FF48070ADF80000482003
:1003A0008DF8030003208DF802006946014800F033
:1003B00039F808BD000C014008B54FF48070ADF865
:1003C000000010208DF8030003208DF8020069461C
:1003D000014800F027F808BD000C0140704700B547
:1003E000034603E04FF47A7000F005F8181EA3F1FD
:1003F0000103F7D100BD00EBC001C9004FF0E022BE
:100400005161002191610521116100BF4FF0E02190
:10041000096901F480310029F8D004214FF0E0226D
:10042000116170472DE9F0410246002500260020A9
:1004300000230024002791F803C00CF00F0591F869
:1004400003C00CF0100CBCF1000F03D091F802C0F7
:100450004CEA050591F800C0BCF1000F31D01468DA
:1004600000202BE04FF0010C0CFA00F3B1F800C0B3
:100470000CEA03069E4220D183004FF00F0C0CFAC9
:1004800003F7BC4305FA03FC4CEA040491F803C0EB
:10049000BCF1280F06D14FF0010C0CFA00FCC2F899
:1004A00014C00AE091F803C0BCF1480F05D14FF029
:1004B000010C0CFA00FCC2F810C0401C0828D1D373
:1004C0001460B1F800C0BCF1FF0F34DD54680020A7
:1004D0002EE000F1080C4FF0010808FA0CF3B1F817
:1004E00000C00CEA03069E4221D183004FF00F0C9E
:1004F0000CFA03F7BC4305FA03FC4CEA040491F838
:1005000003C0BCF1280F05D100F1080C08FA0CF863
:10051000C2F8148091F803C0BCF1480F07D100F174
:10052000080C4FF0010808FA0CF8C2F81080401CC3
:100530000828CED35460BDE8F081024600209368BD
:100540000B400BB1012000E0002070474161704773
:10055000016170470AB1016100E04161704700002C
:100560002DE9F05F00F0D6F86420FFF738FF0D4862
:10057000008800F04AFF80460B4A0C4B00F058FF01
:10058000064600220A4B00F053FF044600224FF0BB
:10059000804300F0B5FD824600F00AFF80B2BDE85E
:1005A000F09F0000000000202D431CEBE2361A3FB4
:1005B000009AE0402DE9F05F00F0BEF86420FFF7FC
:1005C0000EFF0D48008800F020FF80460B4A0C4BC0
:1005D00000F02EFF064600220A4B00F029FF0446D9
:1005E00000224FF0804300F08BFD824600F0E0FED9
:1005F00080B2BDE8F09F0000020000202D431CEBFC
:10060000E2361A3F009AE0402DE9F05F00F0A6F8CC
:100610006420FFF7E4FE0D48008800F0F6FE8046F7
:100620000B4A0C4B00F004FF064600220A4B00F078
:10063000FFFE044600224FF0804300F061FD824639
:1006400000F0B6FE80B2BDE8F09F0000040000207C
:100650002D431CEBE2361A3F009AE0402DE9F05F93
:1006600000F08EF86420FFF7BAFE0D48008800F015
:10067000CCFE80460B4A0C4B00F0DAFE0646002208
:100680000A4B00F0D5FE044600224FF0804300F0F4
:1006900037FD824600F08CFE80B2BDE8F09F00007E
:1006A000060000202D431CEBE2361A3F009AE04082
:1006B00008B50121042000F067FA10208DF803002E
:1006C0005520ADF8000003208DF80200694610485F
:1006D000FFF7A8FE28208DF80300AA20ADF800003F
:1006E00003208DF8020069460948FFF79BFE0121AF
:1006F0000748FFF72BFF04210548FFF727FF1021CC
:100700000348FFF723FF40210148FFF71FFF08BD03
:100710000008014010B501210648FFF719FF2D2000
:10072000FFF769FE01210348FFF710FF00F0E8FB27
:1007300010BD00000008014010B504210648FFF775
:1007400007FF2D20FFF757FE04210348FFF7FEFEA9
:1007500000F0D6FB10BD00000008014010B51021CC
:100760000648FFF7F5FE2D20FFF745FE1021034850
:10077000FFF7ECFE00F0C4FB10BD000000080140D4
:1007800010B540210648FFF7E3FE2D20FFF733FEAA
:1007900040210348FFF7DAFE00F0B2FB10BD000075
:1007A0000008014000BFFEE700BFFEE77047000001
:1007B00070B5002100230F22C47804B3154C2468BF
:1007C00004F4E064C4F5E064210AC1F10403CA4002
:1007D000447804FA03F184781440214309010E4C53
:1007E0000678A155047804F01F050124AC40057873
:1007F0006D11AD0005F1E025C5F8004109E0047870
:1008000004F01F050124AC40044D0678761145F82C
:10081000264070BD0CED00E000E400E080E100E067
:1008200002490143024A1160704700000000FA05C6
:100830000CED00E070B500240EE00021204600F031
:10084000F0F8002504E0002000F07CF9681CC5B237
:10085000802DF8DB601CC4B2082CEEDB70BD0000FC
:1008600008B50121082000F08FF910208DF8030051
:1008700003208DF802004FF48060ADF80000694657
:100880000A48FFF7CFFD4FF40060ADF8000069465D
:100890000648FFF7C7FD012291020448FFF75AFE00
:1008A0000122D1020148FFF755FE08BD000C0140AE
:1008B00070B50546002415E08020204100EA0502BD
:1008C0004FF400610E48FFF745FE012291020C48EB
:1008D000FFF740FE00224FF480610948FFF73AFE1F
:1008E000601CC4B2082CE7DB012291020448FFF728
:1008F00031FE00224FF480610148FFF72BFE70BDEE
:10090000000C014010B50122D1020A48FFF722FE77
:10091000012291020748FFF71DFE00224FF40061FB
:100920000448FFF717FE00224FF480610148FFF7EB
:1009300011FE10BD000C014010B500224FF4006103
:100940000648FFF707FE012291020448FFF702FE66
:100950000122D1020148FFF7FDFD10BD000C01404E
:1009600070B5002406E0002500E06D1CB5F57A7F27
:10097000FBD3641CB4F57A7FF5D3FFF771FFAE208B
:1009800000F0D0F8D52000F0CDF8802000F0CAF8B3
:10099000A82000F0C7F83F2000F0C4F8D32000F0F2
:1009A000C1F8002000F0BEF8402000F0BBF8A12004
:1009B00000F0B8F8C82000F0B5F8DA2000F0B2F87E
:1009C000122000F0AFF8812000F0ACF8CF2000F04A
:1009D000A9F8D92000F0A6F8F12000F0A3F8DB2058
:1009E00000F0A0F8302000F09DF8A42000F09AF864
:1009F000A62000F097F88D2000F094F8142000F065
:100A000091F8AF2000F08EF8FFF714FF70BD10B51D
:100A10000246012000E050430B1EA1F10101FAD172
:100A200010BD70B505460C4645F0B00000F07AF8F0
:100A3000102141EA141000F075F804F00F0000F0E6
:100A400071F870BD2DE9F04105460E461746721E3D
:100A5000D206110E6A1E5206100EFFF7E2FF0024A6
:100A600009E0A7F12001134A02EB0111085D00F033
:100A700069F8601CC4B2082CF3DB721ED206110E9A
:100A80006A1E012303EB4202D0B2FFF7CAFF002423
:100A90000BE0A7F12001074A02EB011204F1080163
:100AA000505C00F04FF8601CC4B2082CF1DBBDE8CC
:100AB000F08100006E1B00082DE9F04780460E46CD
:100AC00017461D46002415E0281B411E0A20FFF78B
:100AD0009EFFB7FBF0F00A21B0FBF1F201FB120020
:100AE00000F130093019C1B24A464046FFF7AAFF6B
:100AF000601CC4B2AC42E7DBBDE8F0872DE9F041F1
:100B000007460E461546002407E02A5D3019C1B29B
:100B10003846FFF797FF601CC4B2285D0028F4D167
:100B2000BDE8F08110B50446FFF7ECFE7820FFF732
:100B3000BFFE0020FFF7BCFE2046FFF7B9FEFFF71F
:100B4000FBFE10BD10B50446FFF7DCFE7820FFF772
:100B5000AFFE4020FFF7ACFE2046FFF7A9FEFFF7EF
:100B6000EBFE10BD7047000029B1064AD26902436E
:100B7000044BDA6104E0034AD2698243014BDA6133
:100B8000704700000010024029B1064A92690243F2
:100B9000044B9A6104E0034A92698243014B9A61D3
:100BA0007047000000100240704710B500F002F8D6
:100BB00010BD00000CB50020019000903348006883
:100BC00040F480303149086000BF3048006800F4CC
:100BD000003000900198401C0190009818B90198CD
:100BE000B0F5A06FF1D12948006800F4003010B1D1
:100BF0000120009001E0002000900098012843D1DE
:100C00002348006840F01000214908600846006849
:100C100020F0030008600846006840F00200086009
:100C20001A484068194948600846406848600846C4
:100C3000406840F4806048600846406820F47C10BA
:100C400048600846406840F4E8104860084600687C
:100C500040F08070086000BF0C48006800F0007031
:100C60000028F9D00948406820F00300074948608F
:100C70000846406840F00200486000BF03484068F2
:100C800000F00C000828F9D10CBD00000010024053
:100C9000002002407047000010B51348006840F083
:100CA00001001149086008464068104908400E4993
:100CB0004860084600680E4908400B49086008462D
:100CC000006820F4802008600846406820F4FE0098
:100CD00048604FF41F008860FFF767FF4FF0006027
:100CE0000449086010BD0000001002400000FFF839
:100CF000FFFFF6FE08ED00E010B500244FF4007190
:100D00000348FFF71AFC00B90124204610BD00007B
:100D1000000C01401CB501210820FFF735FF4820D9
:100D20008DF807004FF40070ADF8040003208DF833
:100D3000060001A90E48FFF775FB01210820FFF707
:100D400023FF10208DF80300C020ADF80000032021
:100D50008DF8020069460648FFF764FB402104480D
:100D6000FFF7F4FB80210248FFF7F0FB1CBD0000F9
:100D7000000C014010B50121880700F04FF8012850
:100D80002FD102211748FFF7D8FB012804D11648BC
:100D90000088401C1449088008211248FFF7CDFB49
:100DA000012804D111480088401C104908802021E6
:100DB0000C48FFF7C2FB012804D10D480088401CF5
:100DC0000B49088080210748FFF7B7FB012804D1B1
:100DD00008480088401C074908800121880700F066
:100DE0000EF810BD000801400000002002000020A5
:100DF0000400002006000020CA4302827047CA4354
:100E00000282704721B1028842F00102028004E0B0
:100E100002884FF6FE731A400280704730B50246D2
:100E2000002000230024158A05EA0103958905EABC
:100E3000010413B10CB1012000E0002030BD1AB153
:100E400083890B43838102E083898B4383817047CD
:100E500001894FF6F8721140018170470022028823
:100E60001D4B98420ED01D4B98420BD0B0F1804FD5
:100E700008D01B4B984205D01A4B984202D01A4B0F
:100E8000984204D14FF68F731A404B881A43174B80
:100E9000984207D0164B984204D04FF6FF431A40B1
:100EA000CB881A4302808B8883850B8803850A4B85
:100EB00098420BD0094B984208D00E4B984205D06F
:100EC0000D4B984202D00D4B984201D10B7A03860C
:100ED0000123838270470000002C01400034014050
:100EE0000004004000080040000C004000100040DA
:100EF000001400400040014000440140004801400F
:100F00001FB5002021490880214908802149088017
:100F10002149088001210846FFF726FE4FF0804056
:100F2000FFF796FF0020ADF80A00ADF8060041F685
:100F30001F40ADF808000020ADF804008DF80C004B
:100F400001A94FF08040FFF789FF01218807FFF7D3
:100F500053FF012211469007FFF771FF4FF4A06085
:100F6000FFF75EFC1C208DF8000001208DF80300C7
:100F700002208DF8010001208DF802006846FFF77D
:100F800017FC01218807FFF73DFF1FBD000000206F
:100F900002000020040000200600002000BFFEE741
:100FA000FFF7DEFCFFF784FBFFF7B4FE3BA2012155
:100FB0000846FFF7A3FD3AA201210220FFF79EFD9C
:100FC00038A201210320FFF799FD37A20A2103204F
:100FD000FFF794FD61E0FFF7C3FA044602232246BF
:100FE00004210120FFF768FDFFF7E4FA044602231D
:100FF000224607210120FFF75FFDFFF705FB0446AE
:10100000022322460A210120FFF756FDFFF726FBA7
:101010000446022322460D210120FFF74DFDFFF774
:101020006BFE04460223224604211846FFF744FDC6
:10103000FFF79AF9054600F029FC044602232246F0
:1010400003210846FFF738FDFFF786F9054600F053
:101050001DFC0446022322460D210320FFF72CFD30
:10106000FFF77AF90446114900F0DBFC04D2402175
:101070000F48FFF76DFA03E040210D48FFF766FACD
:10108000FFF73AFE012804D180210948FFF760FAF2
:1010900003E080210648FFF759FA9CE748433A00ED
:1010A00054423A00543A0000533A00000000824291
:1010B000000C014070B5002400251BE000BF0F4864
:1010C0000068C0F300200028F9D02820FFF793F92A
:1010D0006006040E09480068C0F3002040B100BF5C
:1010E00006480068C0F300200028F9D144F001044C
:1010F000681CC5B2082DE1DB204670BD080C01401C
:101100002DE9C04130B4DFF8A0C23CEA111418BF89
:101110003CEA131400F0EC8081EA03051CEA111488
:1011200044EAD57418BF1CEA131500F0C780A4EB7D
:1011300005044FF0004545EAC12145EAC32341EAD1
:10114000505143EA525304F17F74994204F500343C
:101150004FEAC0204FEAC22208BF904200F09C80B4
:101160004FEA13650FF24016765D4FEA134506FB12
:1011700005F7C7F1807706FB07F74FEAD737A7FBDC
:1011800003687642C8F58038A7FB06CE38BFA8F1C1
:10119000010807FB08E64FF0000EA6FB028CE6FBF9
:1011A00003CEDCF1000CCEF1004E38BFAEF1010EE3
:1011B000A6FB0C584FF000074FF00005E6FB0E872A
:1011C000A1FB08C6A0FB07CE16EB0E0645F10005F5
:1011D000E1FB076515F1E04E7EBFA4F580345FEAC0
:1011E00046066D4116F1800745F100054FEA1727C5
:1011F0004FEA066647EA0567A6F1DE46B6F1805F6C
:101200004FEA15251FD9384624F0010C05EBC471AF
:10121000BCF1FE6F01EB0C1102D8F0BCBDE80081FF
:1012200024425CBF01F5801E9EEAC47F02D4F0BC5C
:10123000BDE80081244238D4F0BCA1F1C041BDE832
:10124000004100F0EDB94FEAD22242EA43524FEAA0
:10125000D323A7FB02864FEAD02040EA415007FB88
:1012600003661EEA0E0F4FEAD12105FB026658BF46
:10127000A6EB0056B6EB00564FEA520E4EEAC37E7E
:1012800018EB0E0E56EB530EBDD518EB02085E415F
:101290007F1C55F10005B6E74FF480154FF00007AD
:1012A0004FF000064FF00008ADE7F0BC4FF0000033
:1012B00001F1C04101F00041BDE8008111EA0C1FBD
:1012C0000CEA131500D00CE013EA0C1F00F0258087
:1012D0004FF00000F0BC81EA030101F00041BDE8DD
:1012E0000081F0BCBDE8004181EA030100F098B93B
:1012F000F0BCBDE8004170B500F044F9097EFC3E49
:1013000000F007B881EA03014FF0000001F000414E
:10131000704781EA030100F083B9F0BCBDE80041E9
:101320004FF0000021497047FFFDFBF9F7F5F4F29B
:10133000F0EEEDEBE9E8E6E4E3E1E0DEDDDBDAD870
:10134000D7D5D4D3D1D0CFCDCCCBCAC8C7C6C5C4CE
:10135000C2C1C0BFBEBDBCBBBAB9B8B7B6B5B4B3E5
:10136000B2B1B0AFAEADACABAAA9A8A8A7A6A5A4D0
:10137000A3A3A2A1A09F9F9E9D9C9C9B9A99999894
:101380009797969595949393929191908F8F8E8E37
:101390008D8C8C8B8B8A89898888878786858584C4
:1013A00084838382828181800000FF070000F87FB0
:1013B0004FEA1153A3F58063D3F11E03A8BFD3F105
:1013C000200C08DB4FF0004242EAC12252EA5052A0
:1013D00032FA03F0704709420BD4102BC4BF00202F
:1013E000704703F5787CBCF1FF3F05D04FF0FF302C
:1013F00070474FF00000704770B500F0C3F800BFB1
:101400004992248000207047F0E7B0FA80F310FA88
:1014100003F10AD0C3F11D0303F580634FEA415085
:101420004FEA035202EBD12170474FF000007047A2
:10143000DFF848C170B51CEA111E1EBF1CEA131567
:101440009EEA0C0F95EA0C0F00F06F8081EA03040E
:1014500023EA4C134EEAD47E21EA4C1141F4801168
:1014600043F48013AE44A1FB024CA0FB0365AEF134
:101470007F7E361955EB0C05A1FB034C4CF10003A4
:10148000A0FB021C16EB0C06654153F10003094258
:1014900018BF46F0010613F4007F0BD14FEA033169
:1014A0004FEA0530340341EA155140EA16506FF017
:1014B00003020AE04FEAC3214FEAC520F40241EAE1
:1014C000555140EA56506FF0020202EB2E4201EBFA
:1014D000025585EACE710AD05FEA440C18BF24F0A9
:1014E000004450F1000041F1000120EAD47040F2C4
:1014F000FE7C624500D270BDA84214BF4FF080440C
:101500004FF04044002E08BF0024BEF1806FA8BFFA
:10151000A1F1C041BDE8704080F282804FF0000030
:1015200001F1C04101F0004170479EEA0C0F0CEA46
:10153000131518BF95EA0C0F06D04FF0000081EA92
:10154000030E0EF0004170BD00F01CF88900013E52
:1015500000F007B800F009B84FEA430C5FEA5C5CA2
:1015600008D081EA030100F05BB84FEA410C5FEA62
:101570005C5CF6D14FF00000014970470000FF07A6
:101580000000F87F0EF1020E2EF0030E5EF8046BE1
:10159000364205D4012A43EB030515F5001F12D886
:1015A000012841EB010C1CF5001F0CD80ED14FEAAD
:1015B000D17C15F5001F0CEB4C0C0CF1020C08BF94
:1015C0004CEBD37C04E04FF0080C01E04FEAD37CF5
:1015D0000CEB4C0526FA05F606F00706B6F1040CEE
:1015E00006D20EEB860CBDE870404CF0010C604753
:1015F000DFE80CF0090B02024FF000414FF0000051
:10160000A1F5002170BD19461046012851EB0104D7
:1016100018BFD4F5001484BF002001F0004170BD54
:101620000808A0F500114FEA3101704790EA010F58
:1016300048BF81F0004100F12C82421A3CBF801A61
:1016400089184FEAD0524FF07F4C1CEA410FA2EBB1
:10165000D15318BF9CEA026F00F03B804FF0004C62
:101660004CEA00204CEA012121FA03FC10EB0C0C9F
:101670001ED202F1FF325FEA1C2040EBC25038BF9D
:1016800070471CF07F0F4FEA400C18BFBCF17F4F32
:1016900038BF7047C3F12003994008BF20F0010014
:1016A000BCF17F4F38BF7047A0F1C04000F0B4B923
:1016B0004FEA3C00000A40EBC25028BF1CF0FF0F6D
:1016C0004FEA400CE6D018BFBCF17F4F38BF7047DF
:1016D000EAE79CEA026F05D010EA5C0F08BF00F051
:1016E0000040704710B500F051F900BF64FBBE3EEA
:1016F000401058BFC0F14040491058BFC1F14041AF
:101700008142EFF3008070474FF47F0C1CEAD01247
:101710001EBF1CEAD11392EA0C0F93EA0C0F00F0E3
:10172000858090EA010F48BF42F4807240F4000CBB
:1017300041F400002CF07F4120F07F4000B5814251
:10174000A2EB03020FF2081CACEB504EC0F10000FC
:101750009EF800E04FEA4E0E00FB0EFC38BF490039
:101760004FEA2C1C02F5FA020CFB0EF34FEACE1ED8
:101770004FEA112C4FEAC1210EEB635E42EB22428D
:101780000EFB0CFC4FEA1C5300FB03114FEA112C1B
:101790004FEA01310EFB0CFC4FEADC4C00FB0C1154
:1017A000C14228BF09184CEB03335DF804EB10EB82
:1017B000410143EBC250B2F57C0F38BF704729D5C9
:1017C00012F0F00F1CBF00F1C04000F00040704765
:1017D000008182838485868788898B8C8D8E8F910A
:1017E0009293959697999A9C9D9FA0A2A3A5A7A82E
:1017F000AAACAEB0B2B3B5B7B9BCBEC0C2C5C7C95A
:10180000CCCED1D4D7D9DCDFE2E6E9ECF0F3F7FABD
:10181000FE0000004FEA400C0CF1807CBCF17E4FD2
:1018200028BF7047B0F1C04000F0F6B890EA010F51
:101830000CEAD11348BF42F48072624538BF634559
:1018400007D213F47F0F16D080EA010000F00040A9
:10185000704710B500F09AF8097EFC3E00F005B81C
:1018600080EA010000F00040704780EA010000F0CB
:10187000004000F0D1B812F47F0F04BF0248704757
:1018800080EA010000F0C8B80000C07FC10DD1F1AE
:101890009E0206DB4FEA002343F0004323FA02F0E6
:1018A0007047004207D54FEA4001B1F1FE4F02D226
:1018B0004FF00000704710B500F068F8499224809E
:1018C000002070476FEA20007047000010F00041D0
:1018D00048BF4042B0FA80F310FA03F2C3F19D030F
:1018E0000BD051EAC35101EB1220530638BF7047A9
:1018F00000F1010008BF20F001007047B0FA80F34A
:1019000010FA03F2C3F19D030AD0D90501EB1220AE
:10191000530638BF704700F1010008BF20F00100F6
:101920007047000050EA010C00F113801CF5000F15
:1019300058BFBCF5000F01D48842704707D710F597
:10194000000F58BF11F5000F15D488427047894227
:1019500070471CF5000F04D5BCF5000FF7D5814288
:1019600070474FF0807C1CEB400F38BF1CEB410FE1
:1019700001D28142704710B500F008F89224490066
:101980004FF000504FF08051FFF7B2BE0EF1020E43
:101990002EF0030E5EF8044B244204D44FEA4102B9
:1019A000B2F17F4F11D84FEA4003B3F17F4F0CD80B
:1019B0000ED14FEAD07CB2F17F4F0CEB4C0C0CF106
:1019C000020C08BF4CEBD17C04E04FF0080C01E0A6
:1019D0004FEAD17C0CEB4C0324FA03F404F0070427
:1019E000B4F1040C06D20EEB840CBDE810404CF0B0
:1019F000010C6047DFE80CF0070802024FF00040DE
:101A0000A0F5800010BD0846420018BFD2F18072D8
:101A100088BF00F0004010BDFF2141EAD050C00552
:101A2000704751EA000C00F113801CF5000F58BFFD
:101A3000BCF5000F01D48142704707D711F5000FA4
:101A400058BF10F5000F15D4814270478942704786
:101A50001CF5000F04D5BCF5000FF7D58842704780
:101A60004FF0807C1CEB410F38BF1CEB400F01D2C4
:101A70008842704780EA010081EA000180EA0100A3
:101A8000FFF779BF90EA010F48BF81F000413FF5B1
:101A9000D4AD421A04D882F00042A0EB02001144F7
:101AA0004FEAD0524FF07F4C1CEA410FA2EBD153CA
:101AB00018BF9CEA026F4AD04FF0004C4CEA00205D
:101AC0004CEA012121FA03FCB0EB0C0C0FD412F00C
:101AD000FE0F36D05FEA4C001DD5001240EBC2501D
:101AE00038BF70471CF03F0F18BF70470BE0A2F1E2
:101AF00001025FEA1C2040EBC25038BF70471CF067
:101B00007F0F18BF7047C3F12003994014BF401ED8
:101B100020F00100704780084FEA122308BF704789
:101B2000B0FA80FCA2EB0C02CCF1280C60FA0CF0AD
:101B300093EA122F04BF00EBC25070474FEAC37004
:101B40007047130A5FEADC1008BF7047F6E79CEAAB
:101B5000026F04D010EA5C0F08BF0020704710B578
:101B6000FFF714FF40DFF63E81F0004070470000B1
:101B70000000000000000000000000000000000065
:101B800000F80000000000000033300000000010EA
:101B90000C06100C0600000000000000000040C011
:101BA0007840C0784000043F04043F040400007003
:101BB00088FC08300000001820FF211E0000F008FB
:101BC000F000E018000000211C031E211E0000F0A0
:101BD0000888700000001E212324192721101016E8
:101BE0000E000000000000000000000000000000E7
:101BF00000E0180402000000000718204000000266
:101C00000418E000000000402018070000004040D9
:101C100080F0804040000202010F0102020000003B
:101C200000F0000000000101011F0101010000009F
:101C300000000000000080B0700000000000000004
:101C4000000000000000000101010101010100008D
:101C50000000000000000030300000000000000024
:101C6000000080601804006018060100000000E019
:101C700010080810E000000F102020100F000010C6
:101C800010F8000000000020203F2020000000701D
:101C90000808088870000030282422213000003015
:101CA0000888884830000018202020110E0000000D
:101CB000C02010F8000000070424243F240000F88E
:101CC0000888880808000019212020110E0000E073
:101CD000108888180000000F112020110E00003815
:101CE0000808C83808000000003F0000000000702D
:101CF000880808887000001C222121221C0000E0B6
:101D000010080810E0000000312222110F0000002E
:101D100000C0C000000000000030300000000000E3
:101D20000080000000000000806000000000000053
:101D300080402010080000010204081020004040EC
:101D4000404040404000040404040404040000082F
:101D500010204080000000201008040201000070E4
:101D600048080808F0000000003036010000C030CC
:101D7000C828E810E0000718272423140B000000EF
:101D8000C038E0000000203C23020227382008F879
:101D9000888888700000203F202020110E00C0306D
:101DA000080808083800071820202010080008F844
:101DB00008080810E000203F202020100F0008F83D
:101DC0008888E8081000203F20202320180008F809
:101DD0008888E8081000203F200003000000C03081
:101DE00008080838000007182020221E020008F802
:101DF00008000008F808203F210101213F200008C9
:101E000008F8080800000020203F20200000000003
:101E10000808F8080800C08080807F00000008F8EB
:101E200088C028180800203F20012638200008F824
:101E3000080000000000203F20202020300008F88B
:101E4000F800F8F80800203F003F003F200008F8A5
:101E500030C00008F808203F200007183F00E010BD
:101E600008080810E0000F10202020100F0008F8CC
:101E700008080808F000203F210101010000E010DF
:101E800008080810E0000F18242438504F0008F804
:101E9000888888887000203F2000030C3020007064
:101EA0008808080838000038202121221C00180862
:101EB00008F8080818000000203F2000000008F87B
:101EC00008000008F808001F202020201F000878C4
:101ED000880000C83808000007380E010000F80824
:101EE00000F80008F800033C0700073C030008184E
:101EF00068808068180820302C03032C30200838B4
:101F0000C800C83808000000203F2000000010086A
:101F10000808C838080020382621202018000000B2
:101F200000FE020202000000007F40404000000C62
:101F300030C000000000000000010638C0000002B0
:101F40000202FE000000004040407F000000000050
:101F50000402020204000000000000000000000073
:101F6000000000000000808080808080808000026F
:101F7000020400000000000000000000000000005B
:101F80008080808000000019242222223F2008F84F
:101F9000008080000000003F112020110E00000092
:101FA000008080800000000E112020201100000021
:101FB00000808088F800000E112020103F200000D3
:101FC000808080800000001F2222222213000080D7
:101FD00080F0888888180020203F20200000000022
:101FE000808080808000006B94949493600008F857
:101FF000008080800000203F210000203F200080E2
:102000009898000000000020203F202000000000E1
:1020100000809898000000C08080807F000008F851
:10202000000080808000203F24022D302000000826
:1020300008F8000000000020203F202000008080E1
:10204000808080808000203F20003F20003F8080F3
:10205000008080800000203F210000203F20000001
:10206000808080800000001F202020201F008080B2
:1020700000808000000080FFA12020110E000000E1
:10208000008080808000000E112020A0FF808080D2
:1020900080008080800020203F212000010000007F
:1020A0008080808080000033242424241900008054
:1020B00080E0808000000000001F20200000808061
:1020C000000000808000001F202020103F20808022
:1020D00080000080808000010E30080601008080B2
:1020E0000080008080800F300C030C300F000080D7
:1020F0008000808080000020312E0E312000808002
:1021000080000080808080818E7018060100008031
:102110008080808080000021302C2221300000004F
:102120000000807C020200000000003F40400000F0
:102130000000FF00000000000000FF00000000029F
:10214000027C800000000040403F000000000006CC
:102150000101020204040000000000000000000071
:10216000802100080000002018000000280100085D
:1021700098210008180000206006000044010008B3
:10218000000000000000000000000000000000004F
:08219000000000000000000047
:04000005080000ED02
:00000001FF
